:030000000200E813
:0C00E800787FE4F6D8FD75811B02012F23
:1000030005111112131415050C0000000000010B5B
:080013000001080002090000D1
:10002600E490FEA0F0758E5190FE9104F090FF00D2
:10003600E054F04408F090FF10E0540F4480F09034
:10004600FF01E0540F4420F0D28090FFA07421F00D
:10005600A37403F075CC0675CEFF75CD98759E0218
:1000660075981043A81090FE927410F075BBAC9072
:10007600FEA774FFF053BBF77F007E3B1202747B32
:10008600007A0079117D057F007E3B1201747B00AA
:100096007A00790C7D057F007E3B1201E8D2AFE540
:1000A6000B60FC53A8EFE509643B70F3E50A1460A6
:1000B6001214601414601614601824047017850C4A
:1000C600998012850D99800D850E998008850F9966
:1000D600800385109943A810E4F50BF508439810A2
:0200E60080BDDB
:030023000201B126
:1001B100C0E0C0D075D000C000C007E59830E01E97
:1001C100AF08050874092FF8A699C3E508940274CD
:1001D10080948040065398EF750B015398FED00729
:0701E100D000D0D0D0E032C5
:1002740053BBF7C280E5BB540870F5D280C2AF759A
:10028400FDF075FC0F8EFA8FF975FDD275FC2D7596
:08029400FDE175FC1ED2AF2252
:10024A0053BBF7C280E5BB540870F5D280C2AF8FAA
:10025A00FB75FDF075FC0F8CFA8DF975FDB475FC14
:0A026A004B75FDE175FC1ED2AF22BA
:0C0174008E168F178D188B198A1A891BA4
:10018000E4FEC2AFEEC395185024AB19051BE51B66
:10019000AA1A7002051A14F912021FFF0517E517B3
:1001A000AC167002051614FD12024A0E80D6D2AFAC
:0101B000222C
:1001E8008E168F178B188A19891AAF051DEF60268E
:1001F8000517E517AE167002051614F5828E83E40E
:1002080093FFAB18051AE51AAA197002051914F913
:07021800EF12023880D4222E
:1000F400020026E493A3F8E493A34003F68001F2FC
:1001040008DFF48029E493A3F85407240CC8C3330C
:10011400C4540F4420C8834004F456800146F6DFDB
:10012400E4800B0102040810204080900003E47E68
:10013400019360BCA3FF543F30E509541FFEE493D0
:10014400A360010ECF54C025E060A840B8E493A397
:10015400FAE493A3F8E493A3C8C582C8CAC583CAC2
:10016400F0A3C8C582C8CAC583CADFE9DEE780BE7A
:01001B0000E4
:10021F00BB010689828A83E0225002E722BBFE02DD
:09022F00E32289828A83E4932210
:10023800BB010689828A83F0225002F722BBFE01A5
:02024800F3229F
:00000001FF
