:0300000002003EBD
:0C003E00787FE4F6D8FD75810F02008584
:0D000300010F00010800050A0000000000C8
:1000CA00E490FEA0F0758E5190FE9104F090FF101E
:1000DA00E0540F4480F090FF01E0540F4420F09068
:1000EA00FFA87421F0A37403F075C5FF75C4987551
:1000FA00C106E490FE89F090FE887410F043A8408F
:10010A00D2AFE50F60FC53A8BFE4F509E509C39532
:10011A00085019740A2509F8E690FE8AF090FE88BC
:10012A00E030E1F9E054FDF0050980E043A840E43D
:0D013A00F50FF50890FE88E04410F080C538
:03003B0002014778
:10014700C0E0C083C082C0D075D000C000C006C068
:100157000790FE88E030E02B90FE8AE0FFAE0805AE
:1001670008740A2EF8A607C3E508940574809480DE
:10017700400A90FE88E054EFF0750F0190FE88E08A
:1001870054FEF0D007D006D000D0D0D082D083D094
:02019700E03254
:10004A000200CAE493A3F8E493A34003F68001F202
:10005A0008DFF48029E493A3F85407240CC8C333B7
:10006A00C4540F4420C8834004F456800146F6DF86
:10007A00E4800B0102040810204080900003E47E13
:10008A00019360BCA3FF543F30E509541FFEE4937B
:10009A00A360010ECF54C025E060A840B8E493A342
:1000AA00FAE493A3F8E493A3C8C582C8CAC583CA6D
:1000BA00F0A3C8C582C8CAC583CADFE9DEE780BE25
:0100100000EF
:00000001FF
