:03000000020036C5
:0C003600787FE4F6D8FD75810902007D9A
:06002C00010900010800BB
:10000300E490FEA0F0758E5190FE9104F0A374105D
:0E001300F075BBA790FEA774FFF0D2AF80FE81
:030033000200C206
:1000C200C0E0C0F0C083C082C0D075D000C000C004
:1000D20001C002C003C004C005C006C007E5BB30B2
:1000E200E32353BBF7C2AF120021AF0805088F0903
:1000F2007F007E2B12013BAD097F007E2B12012275
:10010200120021D2AFD007D006D005D004D003D040
:1001120002D001D000D0D0D082D083D0F0D0E03253
:10013B0075FDF075FC0F8EFA8FF975FDD275FC2DE0
:07014B0075FDE175FC1E22A9
:100122008DFB75FDF075FC0F8EFA8FF975FDB475B8
:09013200FC4B75FDE175FC1E2279
:06002100AD087F007E2BFC
:050027008F828E832290
:10004200020003E493A3F8E493A34003F68001F2D1
:1000520008DFF48029E493A3F85407240CC8C333BF
:10006200C4540F4420C8834004F456800146F6DF8E
:10007200E4800B010204081020408090002CE47EF2
:10008200019360BCA3FF543F30E509541FFEE49383
:10009200A360010ECF54C025E060A840B8E493A34A
:1000A200FAE493A3F8E493A3C8C582C8CAC583CA75
:1000B200F0A3C8C582C8CAC583CADFE9DEE780BE2D
:0100320000CD
:00000001FF
