:03000000020003F8
:0C000300787FE4F6D8FD75810802004A01
:0300E6000108000E
:10008F00E490FEA0F0758E5190FE9104F090FF0069
:10009F00E054F04408F090FEAA74FFF0E4F508C3B2
:1000AF00E508940A74809480500DB2807FFA7E0028
:0900BF001200C8050880E880FE6B
:1000C800D3EF9400EE940040147D3C7C06ED1D7047
:0D00D800011CED4C70F7EF1F70E61E80E379
:0100E50022F8
:10000F0002008FE493A3F8E493A34003F68001F278
:10001F0008DFF48029E493A3F85407240CC8C333F2
:10002F00C4540F4420C8834004F456800146F6DFC1
:10003F00E4800B01020408102040809000E6E47E6B
:10004F00019360BCA3FF543F30E509541FFEE493B6
:10005F00A360010ECF54C025E060A840B8E493A37D
:10006F00FAE493A3F8E493A3C8C582C8CAC583CAA8
:10007F00F0A3C8C582C8CAC583CADFE9DEE780BE60
:0100E9000016
:00000001FF
