:0300000002028178
:0C028100787FE4F6D8FD7581330202C8D6
:10037B00082600000000000000000E1752656164A3
:10038B0020436869702049440D00012E01012500AE
:10039B000108000D0A000000000000000000000032
:0203AB00000050
:1001E200E490FEA0F0758E5190FE9104F090FF1005
:1001F200E0540F4480F090FF01E0540F4420F0904F
:10020200FFA07421F0A37403F075CC0675CEFF75C0
:10021200CD98759E0275981043A81043A2107B00DA
:100222007A0079267D087F007E0112034453A2EFF3
:10023200D2AFE52560FC53A8EF780A7C007D007BF5
:10024200007A0079177E007F0D1201BE8F2EEF70AB
:1002520021F509C3E509940874809480501474262A
:100262002509F8E6F599E59830E1FB5398FD050973
:0F02720080E143A810E4F525F50843981080B308
:0300230002030DC8
:10030D00C0E0C0D075D000C000C007E59830E01E39
:10031D00AF080508740A2FF8A699C3E508940D7463
:10032D0080948040065398EF7525015398FED007B1
:07033D00D000D0D0D0E03267
:100344008E2F8F308B318A328933AF051DEF6026B3
:100354000530E530AE2F7002052F14F5828E83E44C
:1003640093FFAB310533E533AA327002053214F939
:07037400EF12002680D422E5
:10028D000201E2E493A3F8E493A34003F68001F2A4
:10029D0008DFF48029E493A3F85407240CC8C33372
:1002AD00C4540F4420C8834004F456800146F6DF41
:1002BD00E4800B010204081020408090037BE47E53
:1002CD00019360BCA3FF543F30E509541FFEE49336
:1002DD00A360010ECF54C025E060A840B8E493A3FD
:1002ED00FAE493A3F8E493A3C8C582C8CAC583CA28
:1002FD00F0A3C8C582C8CAC583CADFE9DEE780BEE0
:0103AD00004F
:10002600BB010689828A83F0225002F722BBFE01B9
:02003600F322B3
:10003800E3F5F009E208B5F06BDFF58067E3F5F06A
:1000480009E608B5F05EDFF5805A87F009E608B5DD
:10005800F052DFF6804E87F009E208B5F046DFF689
:10006800804288828C8387F009E0A3B5F036DFF6FA
:10007800803288828C8387F009E493A3B5F025DF6A
:10008800F5802188828C83E3F5F009E0A3B5F014AC
:10009800DFF5801088828C83E3F5F009E493A3B53B
:1000A800F002DFF4020167808780E9809080D480C5
:1000B8003E8015806E807E809D80B7808D80A38075
:1000C800518074803C02017389828A83ECFAE4933C
:1000D800F5F0A3C8C582C8CCC583CCE493A3C8C532
:1000E80082C8CCC583CCB5F076DFE3DEE1807089C9
:1000F800828A83E493F5F0A3E208B5F062DFF48026
:100108005E89828A83E0F5F0A3E608B5F051DFF551
:10011800804D89828A83E0F5F0A3E208B5F040DFDC
:10012800F5803C89828A83E493F5F0A3E608B5F06C
:100138002EDFF4802A8002805789828A83ECFAE4D1
:1001480093F5F0A3C8C582C8CCC583CCE0A3C8C5C5
:1001580082C8CCC583CCB5F006DFE4DEE280007F40
:10016800FFB5F0020F2240027F012289828A83ECC8
:10017800FAE0F5F0A3C8C582C8CCC583CCE0A3C813
:10018800C582C8CCC583CCB5F0D5DFE5DEE380CF2A
:1001980089828A83ECFAE0F5F0A3C8C582C8CCC589
:1001A80083CCE493A3C8C582C8CCC583CCB5F0AFD3
:1001B800DFE4DEE280A988F0EF60010E4E60ABED6F
:1001C8002402B404005098F582EB2402B4040050D1
:0A01D8008E23234582239000AF73AD
:00000001FF
