:03000000020026D5
:0C002600787FE4F6D8FD75810F02006DB4
:0D000300010F00010800050A0000000000C8
:1000B200E490FEA0F0758E5190FE9104F090FF1036
:1000C200E0540F4480F090FF01E0540F4420F09080
:1000D200FFA87421F0A37403F075CC0675CEFF75EA
:1000E200CD98759E0275981043A810D2AFE50F60A7
:1000F200FC53A8EFE4F509E509C395085014740A06
:100102002509F8E6F599E59830E1FB5398FD0509D4
:0F01120080E543A810E4F50FF50843981080CE60
:03002300020121B6
:10012100C0E0C0D075D000C000C007E59830E01E27
:10013100AF080508740A2FF8A699C3E50894057459
:1001410080948040065398EF750F015398FED007B5
:07015100D000D0D0D0E03255
:100032000200B2E493A3F8E493A34003F68001F232
:1000420008DFF48029E493A3F85407240CC8C333CF
:10005200C4540F4420C8834004F456800146F6DF9E
:10006200E4800B0102040810204080900003E47E2B
:10007200019360BCA3FF543F30E509541FFEE49393
:10008200A360010ECF54C025E060A840B8E493A35A
:10009200FAE493A3F8E493A3C8C582C8CAC583CA85
:1000A200F0A3C8C582C8CAC583CADFE9DEE780BE3D
:0100100000EF
:00000001FF
