:0300000002006E8D
:0C006E00787FE4F6D8FD75810E0200B525
:0D000300040B0000000002080102010A00C9
:1000FA00E490FEA0F0758E5190FE9104F090FF00FE
:10010A00E054F04408F090FF08E054F04408F090FE
:10011A00FF00E0540F4430F0A3E054F04403F075BC
:10012A00B4807F0A7E0012001175B50190FE9B749F
:10013A004DF043B820D2AF53B4DF43B440D3E50CFB
:10014A009410E50B94005004D2808002C280D3E55B
:10015A000E9410E50D94005004D29080E0C2908075
:01016A00DCB8
:03006B0002016B24
:10016B00C0E0C0F0C083C082C0D075D000C000C05A
:10017B0001C002C003C004C005C006C00753B4DFF2
:10018B00AF0A050AEF25E0240BF8A6B708A6B6E5DB
:10019B000A64027002F50A7408250AF8E6FFE5B551
:1001AB0054F84FF5B57F0A7E0012001143B440D0CE
:1001BB0007D006D005D004D003D002D001D000D098
:0A01CB00D0D082D083D0F0D0E03213
:0B001100EF1FAC0670011E4C70F622C1
:10007A000200FAE493A3F8E493A34003F68001F2A2
:10008A0008DFF48029E493A3F85407240CC8C33387
:10009A00C4540F4420C8834004F456800146F6DF56
:1000AA00E4800B0102040810204080900003E47EE3
:1000BA00019360BCA3FF543F30E509541FFEE4934B
:1000CA00A360010ECF54C025E060A840B8E493A312
:1000DA00FAE493A3F8E493A3C8C582C8CAC583CA3D
:1000EA00F0A3C8C582C8CAC583CADFE9DEE780BEF5
:0100100000EF
:00000001FF
