:030000000202AD4C
:0C02AD00787FE4F6D8FD7581120202F49F
:10000300040D0000000004090000000002110000BC
:03001300010800E1
:1001E000E490FEA0F0758E5190FE9104F090FF0017
:1001F000E054F04408F090FF08E054F04408F09018
:10020000FE927410F053B47F90FE98E04480F0901A
:10021000FF01E054F04403F090FF05E04410F04388
:10022000B820D2AF438702E47F887E13FDFCAB0C7D
:10023000AA0BA90AA8091200C3E4FB7A10F9F81264
:10024000014E8F108E0F8D0E8C0DE4F508C3E5085E
:10025000940A748094805010E5102512F512E50F71
:100260003511F511050880E5AE11AF127C007D0A4D
:1002700012006E8E118F12C3E51294ACE511940D2D
:10028000500EE51294D0E51194074004B28080949A
:10029000C3E5129488E51194135089E512943CE566
:0D02A00011940F5003020224B290020224B8
:03006B0002033954
:10033900C0E0C0F0C083C082C0D075D000C000C08A
:1003490001C002C003C004C005C006C00790FE98E2
:10035900E054BFF075B4807F0A7E0012001775B5AE
:100369000290FE9B744DF043B440E5B430E5FB5375
:10037900B4DFAFB6AEB7E48F0C8E0BF50AF50953AF
:10038900B47FD007D006D005D004D003D002D00165
:0D039900D000D0D0D082D083D0F0D0E032A0
:0B001700EF1FAC0670011E4C70F622BB
:1002B9000201E0E493A3F8E493A34003F68001F27A
:1002C90008DFF48029E493A3F85407240CC8C33346
:1002D900C4540F4420C8834004F456800146F6DF15
:1002E900E4800B0102040810204080900003E47EA2
:1002F900019360BCA3FF543F30E509541FFEE4930A
:10030900A360010ECF54C025E060A840B8E493A3D0
:10031900FAE493A3F8E493A3C8C582C8CAC583CAFB
:10032900F0A3C8C582C8CAC583CADFE9DEE780BEB3
:0100160000E9
:10006E00BC000BBE0029EF8DF084FFADF022E4CC76
:10007E00F875F008EF2FFFEE33FEEC33FCEE9DEC3F
:10008E00984005FCEE9DFE0FD5F0E9E4CEFD22ED85
:10009E00F8F5F0EE8420D21CFEADF075F008EF2FCF
:1000AE00FFED33FD4007985006D5F0F222C398FDC0
:0500BE000FD5F0EA225D
:1000C300E88FF0A4CC8BF0A42CFCE98EF0A42CFCDC
:1000D3008AF0EDA42CFCEA8EF0A4CDA8F08BF0A45A
:1000E3002DCC3825F0FDE98FF0A42CCD35F0FCEBB9
:1000F3008EF0A4FEA9F0EB8FF0A4CFC5F02ECD397E
:0F010300FEE43CFCEAA42DCE35F0FDE43CFC22EA
:1001120075F008758200EF2FFFEE33FECD33CDCCA4
:1001220033CCC58233C5829BED9AEC99E582984027
:100132000CF582EE9BFEED9AFDEC99FC0FD5F0D604
:10014200E4CEFBE4CDFAE4CCF9A88222B800C1B92E
:100152000059BA002DEC8BF084CFCECDFCE5F0CB6C
:10016200F97818EF2FFFEE33FEED33FDEC33FCEBA5
:1001720033FB10D703994004EB99FB0FD8E5E4F960
:10018200FA227818EF2FFFEE33FEED33FDEC33FC4D
:10019200C933C910D7059BE99A4007EC9BFCE99A41
:1001A200F90FD8E0E4C9FAE4CCFB2275F010EF2F86
:1001B200FFEE33FEED33FDCC33CCC833C810D70786
:1001C2009BEC9AE899400AED9BFDEC9AFCE899F8C1
:0E01D2000FD5F0DAE4CDFBE4CCFAE4C8F92254
:00000001FF
