:03000000020003F8
:0C000300787FE4F6D8FD75810802004A01
:03011300010800E0
:10008F00E490FEA0F0758E5190FE9104F090FF0069
:10009F00E054F04408F090FF08E054F04408F0E515
:1000AF00F830E71DE4F5F8F508C3E508940A748005
:1000BF009480500DB2807FFA7E001200F505088003
:1000CF00E8E5F830E61E53F8BFE4F508C3E50894F9
:1000DF000A74809480500DB2907FFA7E001200F562
:0600EF00050880E880FE18
:1000F500D3EF9400EE940040147D3C7C06ED1D701A
:0D010500011CED4C70F7EF1F70E61E80E34B
:0101120022CA
:10000F0002008FE493A3F8E493A34003F68001F278
:10001F0008DFF48029E493A3F85407240CC8C333F2
:10002F00C4540F4420C8834004F456800146F6DFC1
:10003F00E4800B0102040810204080900113E47E3D
:10004F00019360BCA3FF543F30E509541FFEE493B6
:10005F00A360010ECF54C025E060A840B8E493A37D
:10006F00FAE493A3F8E493A3C8C582C8CAC583CAA8
:10007F00F0A3C8C582C8CAC583CADFE9DEE780BE60
:0101160000E8
:00000001FF
