:0300000002007D7E
:0C007D00787FE4F6D8FD758107020003CF
:10000300E490FEA0F0758E5190FE9104F090FF00F5
:10001300E0540F4440F0E054F04408F090FF10E047
:1000230054F04408F090FFA77401F0E490FFA6F0A9
:1000330090FFA57420F0E4F5ABF5AD75ACD77FAABE
:0C00430012006D7FF47E0112004F80F26D
:10006D0075ADC08FABE5AD30E7FB75ADC0AFAB2265
:10004F00D3EF9400EE940040147D3C7C06ED1D70C0
:0D005F00011CED4C70F7EF1F70E61E80E3F2
:01006C002271
:00000001FF
