:030000000200D328
:0C00D300787FE4F6D8FD75810802011A60
:03015F0001080094
:10004600E490FEA0F0758E5190FE9104F090FF10A2
:10005600E0540F4480F090FF01E0540F4420F090EC
:10006600FFA07421F0A37403F075CC0675CEFF755E
:10007600CD98759E0275981043A81090FF00E05425
:100086000F4480F0E054F04404F090FF10E054F088
:100096004404F090FFA77401F0E490FFA6F090FFEF
:1000A600A57420F0E4F5ABF5AD75ACC743B801D245
:1000B600AFC2AF7599BBE59830E1FB5398FD850853
:0D00C60099E59830E1FB5398FDD2AF80E43E
:03004300020003B5
:10000300C0E0C0F0C083C082C0D075D000C000C0C3
:1000130001C002C003C004C005C006C00743AD80D1
:100023001201638F08D007D006D005D004D003D0C7
:1000330002D001D000D0D0D082D083D0F0D0E03233
:03016300AFAB221D
:1000DF00020046E493A3F8E493A34003F68001F2F1
:1000EF0008DFF48029E493A3F85407240CC8C33322
:1000FF00C4540F4420C8834004F456800146F6DFF1
:10010F00E4800B010204081020408090015FE47E20
:10011F00019360BCA3FF543F30E509541FFEE493E5
:10012F00A360010ECF54C025E060A840B8E493A3AC
:10013F00FAE493A3F8E493A3C8C582C8CAC583CAD7
:10014F00F0A3C8C582C8CAC583CADFE9DEE780BE8F
:01016200009C
:00000001FF
