:03000000020003F8
:0C000300787FE4F6D8FD75810902004A00
:0400ED000208000005
:10008F00E490FEA0F0758E5190FE9104F090FF0069
:10009F00E054F04408F0E0540F4430F075B4807F22
:1000AF000A7E001200E275B50190FE9B744DF0437D
:1000BF00B440E5B430E5FB53B4DF85B70885B60926
:1000CF00D3E5099410E50894005004D28080E0C273
:0300DF008080DC42
:0B00E200EF1FAC0670011E4C70F622F0
:10000F0002008FE493A3F8E493A34003F68001F278
:10001F0008DFF48029E493A3F85407240CC8C333F2
:10002F00C4540F4420C8834004F456800146F6DFC1
:10003F00E4800B01020408102040809000EDE47E64
:10004F00019360BCA3FF543F30E509541FFEE493B6
:10005F00A360010ECF54C025E060A840B8E493A37D
:10006F00FAE493A3F8E493A3C8C582C8CAC583CAA8
:10007F00F0A3C8C582C8CAC583CADFE9DEE780BE60
:0100F100000E
:00000001FF
