:03000000020003F8
:0C000300787FE4F6D8FD75811702013506
:10013500E490FEA0F0758E5190FE9104F090FF10B2
:10014500E0540F4480F090FF01E0540F4420F090FC
:10015500FFA07421F0A37403F075CC0675CEFF756E
:10016500CD98759E0275981043A81090FEA274074D
:10017500F0D2AFE50C60FC53A8EF7B007A00790D57
:100185007D057C0012020F8E0A8F0B78137C007D93
:10019500007B007A00790A7E007F021200F6E4F502
:1001A50009C3E509940274809480501474132509D9
:1001B500F8E6F599E59830E1FB5398FD050980E1EE
:1001C50090FEA27407F043A810E4F50CF5084398D7
:0301D5001080A0F7
:030023000201D8FF
:1001D800C0E0C0D075D000C000C007E59830E01E70
:1001E800AF080508740D2FF8A699C3E5089405749F
:1001F80080948040065398EF750C015398FED00701
:07020800D000D0D0D0E0329D
:10020F008B158A168917ED1DAE0470011C4E6015F3
:10021F00AB150517E517AA167002051614F912018A
:0A022F001CF5BE80E1AFBEAEBF2299
:10002600E709F608DFFA8046E709F208DFFA803EBC
:1000360088828C83E709F0A3DFFA8032E309F608A9
:10004600DFFA8078E309F208DFFA807088828C8311
:10005600E309F0A3DFFA806489828A83E0A3F608C5
:10006600DFFA805889828A83E0A3F208DFFA804C9F
:1000760080D280FA80C680D4806980F28033801076
:1000860080A680EA809A80A880DA80E280CA8033DF
:1000960089828A83ECFAE493A3C8C582C8CCC58357
:1000A600CCF0A3C8C582C8CCC583CCDFE9DEE78027
:1000B6000D89828A83E493A3F608DFF9ECFAA9F0A6
:1000C600EDFB2289828A83ECFAE0A3C8C582C8CCFC
:1000D600C583CCF0A3C8C582C8CCC583CCDFEADE15
:1000E600E880DB89828A83E493A3F208DFF980CC77
:1000F60088F0EF60010E4E60C388F0ED2402B40470
:100106000050B9F582EB2402B4040050AF23234516
:06011600822390007673C5
:10011C00BB010689828A83E0225002E722BBFE02E1
:09012C00E32289828A83E4932214
:00000001FF
