:03000000020003F8
:0C000300787FE4F6D8FD75810802004A01
:03012A00010800C9
:10008F00E490FEA0F0758E5190FE9104F090FF0069
:10009F00E054F04408F075080AD3E5089400748022
:1000AF009480400DB2807FFA7E0012010C150880FB
:1000BF00E8E58F5410641070F8538ECFE58E54C05E
:1000CF0070FA538FFD75080AD3E508940074809475
:1000DF0080400DB2807F0A7E0012010C150880E867
:1000EF00438F02E58F5420642070F8758E51E58E92
:0D00FF0054C0644070F890FE9104F08099A8
:10010C00D3EF9400EE940040147D3C7C06ED1D7002
:0D011C00011CED4C70F7EF1F70E61E80E334
:0101290022B3
:10000F0002008FE493A3F8E493A34003F68001F278
:10001F0008DFF48029E493A3F85407240CC8C333F2
:10002F00C4540F4420C8834004F456800146F6DFC1
:10003F00E4800B010204081020408090012AE47E26
:10004F00019360BCA3FF543F30E509541FFEE493B6
:10005F00A360010ECF54C025E060A840B8E493A37D
:10006F00FAE493A3F8E493A3C8C582C8CAC583CAA8
:10007F00F0A3C8C582C8CAC583CADFE9DEE780BE60
:01012D0000D1
:00000001FF
