:030000000204EB0C
:0C04EB00787FE4F6D8FD75812102000343
:1004D5000A436170747572652074696D65A3BA25E8
:0604E500642075730A009B
:10000300E490FEA0F0758E5190FE9104F090FF00F5
:10001300E054F04408F090FF10E0540F4480F09057
:10002300FFA07421F075CC0675CEFF75CD98759E33
:100033000290FF00E0540F4420F090FF857401F01C
:1000430075C11FE490FE85F0F5C3F5C243B810D225
:0C005300AFB2807F017E001204B780F580
:0300630002045044
:10045000C0E0C0F0C083C082C0D075D000C000C072
:1004600001C002C003C004C005C006C007E5C1301A
:10047000E622E5C5C313F51CE5C413F51D7BFF7A21
:100480000479D5851C0BF50C1200C853C1BF75C388
:100490000075C200E5C130E70353C17FD007D00625
:1004A000D005D004D003D002D001D000D0D0D0826B
:0704B000D083D0F0D0E03250
:0B04F7008F99E59830E1FB5398FD223F
:1004B700D3EF9400EE940040147D3C7C06ED1D7054
:0D04C700011CED4C70F7EF1F70E61E80E386
:0104D4002205
:10006600E517240BF8E60517227808300702780B07
:10007600E475F00112041A0203C22000EB7F2ED2AF
:10008600008018EF540F2490D43440D4FF30040B72
:10009600EF24BFB41A0050032461FFE5186002156F
:1000A60018051BE51B7002051A30070D7808E47564
:1000B600F00112041AEF0204080204F77403D207CF
:1000C6008003E4C207F5178B088A09890AE4F51844
:1000D600F51AF51BE51860077F201200A180F5755B
:1000E60019FFC201C200C202C203C205C206C2088B
:1000F60012006FFF700D3007057F001200B2AF1BB4
:10010600AE1A22B4255FC2D5C20412006FFF24D0F6
:10011600B40A00501A75F00A781830D50508B6FFEB
:100126000106C6A426F620D5047002D20380D9247F
:10013600CFB41A00EF5004C2E5D2040202B2D201D3
:1001460080C6D20080C0D20280BCD2D580BAD20589
:1001560080B47F201200A12002077401B518004068
:10016600F1120066FF1200A10200DAD208D2068060
:1001760095120066FB120066FA120066F94A4B7089
:100186000679837A037BFF20022EE518602A7E001B
:100196008E827583001203DB60060EEE651970F021
:1001A600C2D5EBC0E0EAC0E0E9C0E0EE1202F9D049
:1001B600E0F9D0E0FAD0E0FB1203C2FF60AAEBC080
:1001C600E0EAC0E0E9C0E01200A1D0E02401F9D0E5
:1001D600E03400FAD0E0FBE5190460DCD519D980DB
:1001E600877BFF7A0279F5D202809C7910800279AA
:1001F60008C206C2088008D2D5790A8004790AC2E4
:10020600D5E519047002F519E4FAFDFEFF12006641
:10021600FC7B08200113120066FD7B1030000A12D9
:100226000066FE120066FF7B20EC3382D592D55025
:1002360013C3E43000069FFFE49EFEE42001039D05
:10024600FDE49CFCE4CBF8C201EC700CCFCECDCC27
:10025600E824F8F870F38017C3EF33FFEE33FEEDB2
:1002660033FDEC33FCEB33FB994002FB0FD8E9EB93
:10027600300105F8D0E0C448B201C0E00AEC4D4EAA
:100286004F78207B0070C2EAB5190040BCC0E0126E
:1002960002FBD0F0D0E0200104C4C0E0C4B201C02B
:1002A600F012008AD0F0D5F0EB0200DA12042A012F
:1002B600775301F15801484C01444201F54F01FDC5
:0F02C6004401FD49015D4302035501E74601E78D
:1002D5004501E74703A350014C2D01502E01732B17
:1002E500015423017120038C2A010C480000016B85
:1002F5003F3F3F00790AA2D5200314300509B91004
:10030500020404B9080104A2D52006025001042004
:1003150002689202B518005034C0E07F20300319FE
:100325007F30A20272067205500F120352C202C23A
:1003350006C205C2087F30800F300503E9C0E01210
:1003450000A1300503D0E0F9D0E0B518CC30051791
:100355007F30B9100C1200A17F583004077F7880D8
:1003650003B908031200A13002057F2D0200A17F09
:10037500202008F87F2B2006F322920280CF286EDA
:10038500756C6C2900D2011200663001F8C2017843
:100395001830D50108F602010C2D504349581200BA
:1003A500662403B405004001E490039E9312009275
:0D03B500743A120092D2037518040201F18F
:1003C200BB010689828A83E0225002E722BBFE0239
:0903D200E32289828A83E493226C
:1003DB00BB010CE58229F582E5833AF583E02250D7
:1003EB0006E92582F8E622BBFE06E92582F8E22221
:0D03FB00E58229F582E5833AF583E493223B
:10040800BB010689828A83F0225002F722BBFE01D3
:02041800F322CD
:10041A00FAE6FB0808E6F925F0F618E6CA3AF622E3
:10042A00D083D082F8E4937012740193700DA3A361
:10043A0093F8740193F5828883E473740293686075
:06044A00EFA3A3A380DF75
:00000001FF
