:03013000010800C3
:10008F00E490FEA0F0758E5190FE9104F090FF0069
:10009F00E054F04408F075080AD3E5089400748022
:1000AF009480400712010C150880EE438F0490FED8
:1000BF0094E04401F0E58F5480648070F8758EF001
:1000CF00E58E54C064C070F8538FFD75080AD3E5F0
:1000DF0008940074809480400712010C150880EE7C
:1000EF00438F02E58F5420642070F8758E51E58E92
:0D00FF0054C0644070F890FE9104F08099A8
:06010C00B2807FFA7E00C4
:10011200D3EF9400EE940040147D3C7C06ED1D70FC
:0D012200011CED4C70F7EF1F70E61E80E32E
:01012F0022AD
:03000000020003F8
:0C000300787FE4F6D8FD75810802004A01
:10000F0002008FE493A3F8E493A34003F68001F278
:10001F0008DFF48029E493A3F85407240CC8C333F2
:10002F00C4540F4420C8834004F456800146F6DFC1
:10003F00E4800B0102040810204080900130E47E20
:10004F00019360BCA3FF543F30E509541FFEE493B6
:10005F00A360010ECF54C025E060A840B8E493A37D
:10006F00FAE493A3F8E493A3C8C582C8CAC583CAA8
:10007F00F0A3C8C582C8CAC583CADFE9DEE780BE60
:0101330000CB
:00000001FF
