:03000000020003F8
:0C000300787FE4F6D8FD75812002004AE9
:10022F00050A0102030405050F0000000000021477
:06023F00000002080000AF
:10008F00E490FEA0F0758E5190FE9104F090FF0069
:10009F00E054F04408F090FE927410F07B007A0068
:1000AF00790F7D057F007E2B12013990FEA2740718
:1000BF00F07A00790F1201708E088F0990FEA274EA
:1000CF0007F07A00790A1201708E148F15E5156505
:1000DF00097004E5146508600280FEB2807FFA7E25
:0600EF000012021180F571
:060170007B007D057C0010
:100176008B1C8A1D891EED1DAE0470011C4E601578
:10018600AB1C051EE51EAA1D7002051D14F9120101
:0A019600A0F5BE80E1AFBEAEBF22AF
:1001EF00D310AF01C3C0D075FDF075FC0F8EFA8F21
:1001FF00F975FDD275FC2D75FDE175FC1ED0D09201
:02020F00AF221C
:1001CB00D310AF01C3C0D08FFB75FDF075FC0F8C46
:1001DB00FA8DF975FDB475FC4B75FDE175FC1ED000
:0401EB00D092AF22DD
:1000F500D310AF01C3C0D08E168F178D188B198AF8
:030105001A891B39
:10010800E4FEEEC395185024AB19051BE51BAA1A8B
:100118007002051A14F91201A0FF0517E517AC16AD
:0C0128007002051614FD1201CB0E80D6EB
:05013400D0D092AF22C3
:100139008E1C8F1D8B1E8A1F8920AF051DEF60261F
:10014900051DE51DAE1C7002051C14F5828E83E4A5
:1001590093FFAB1E0520E520AA1F7002051F14F9A5
:07016900EF1201B980D4225E
:10021100D3EF9400EE940040147D3C7C06ED1D70FC
:0D022100011CED4C70F7EF1F70E61E80E32E
:01022E0022AD
:10000F0002008FE493A3F8E493A34003F68001F278
:10001F0008DFF48029E493A3F85407240CC8C333F2
:10002F00C4540F4420C8834004F456800146F6DFC1
:10003F00E4800B010204081020408090022FE47E20
:10004F00019360BCA3FF543F30E509541FFEE493B6
:10005F00A360010ECF54C025E060A840B8E493A37D
:10006F00FAE493A3F8E493A3C8C582C8CAC583CAA8
:10007F00F0A3C8C582C8CAC583CADFE9DEE780BE60
:0102450000B8
:1001A000BB010689828A83E0225002E722BBFE025D
:0901B000E32289828A83E4932290
:1001B900BB010689828A83F0225002F722BBFE0125
:0201C900F3221F
:00000001FF
